{
  "_format": "hh-sol-artifact-1",
  "contractName": "ROFLAdapter",
  "sourceName": "contracts/adapters/oasis/ROFLAdapter.sol",
  "abi": [
    {
      "inputs": [
        {
          "internalType": "bytes21",
          "name": "_roflAppID",
          "type": "bytes21"
        },
        {
          "internalType": "uint256",
          "name": "_sourceChainId",
          "type": "uint256"
        }
      ],
      "stateMutability": "nonpayable",
      "type": "constructor"
    },
    {
      "inputs": [
        {
          "internalType": "uint256",
          "name": "blockNumber",
          "type": "uint256"
        },
        {
          "internalType": "bytes32",
          "name": "blockHash",
          "type": "bytes32"
        },
        {
          "internalType": "bytes32",
          "name": "storedBlockHash",
          "type": "bytes32"
        }
      ],
      "name": "ConflictingBlockHeader",
      "type": "error"
    },
    {
      "inputs": [],
      "name": "InvalidBlockHeaderRLP",
      "type": "error"
    },
    {
      "inputs": [],
      "name": "RoflOriginNotAuthorizedForApp",
      "type": "error"
    },
    {
      "inputs": [],
      "name": "SubcallError",
      "type": "error"
    },
    {
      "anonymous": false,
      "inputs": [
        {
          "indexed": true,
          "internalType": "uint256",
          "name": "id",
          "type": "uint256"
        },
        {
          "indexed": true,
          "internalType": "bytes32",
          "name": "hash",
          "type": "bytes32"
        }
      ],
      "name": "HashStored",
      "type": "event"
    },
    {
      "inputs": [],
      "name": "PROVIDER",
      "outputs": [
        {
          "internalType": "string",
          "name": "",
          "type": "string"
        }
      ],
      "stateMutability": "view",
      "type": "function"
    },
    {
      "inputs": [],
      "name": "SOURCE_CHAIN_ID",
      "outputs": [
        {
          "internalType": "uint256",
          "name": "",
          "type": "uint256"
        }
      ],
      "stateMutability": "view",
      "type": "function"
    },
    {
      "inputs": [
        {
          "internalType": "uint256",
          "name": "domain",
          "type": "uint256"
        },
        {
          "internalType": "uint256",
          "name": "id",
          "type": "uint256"
        }
      ],
      "name": "getHash",
      "outputs": [
        {
          "internalType": "bytes32",
          "name": "",
          "type": "bytes32"
        }
      ],
      "stateMutability": "view",
      "type": "function"
    },
    {
      "inputs": [
        {
          "internalType": "uint256",
          "name": "chainId",
          "type": "uint256"
        },
        {
          "internalType": "bytes[]",
          "name": "blockHeaders",
          "type": "bytes[]"
        }
      ],
      "name": "proveAncestralBlockHashes",
      "outputs": [],
      "stateMutability": "nonpayable",
      "type": "function"
    },
    {
      "inputs": [],
      "name": "roflAppID",
      "outputs": [
        {
          "internalType": "bytes21",
          "name": "",
          "type": "bytes21"
        }
      ],
      "stateMutability": "view",
      "type": "function"
    },
    {
      "inputs": [
        {
          "internalType": "uint256",
          "name": "chainId",
          "type": "uint256"
        },
        {
          "internalType": "uint256",
          "name": "blockNumber",
          "type": "uint256"
        },
        {
          "internalType": "bytes32",
          "name": "blockHash",
          "type": "bytes32"
        }
      ],
      "name": "storeBlockHeader",
      "outputs": [],
      "stateMutability": "nonpayable",
      "type": "function"
    }
  ],
  "bytecode": "0x60c03461008457601f610e2538819003918201601f19168301916001600160401b03831184841017610089578084926040948552833981010312610084578051906001600160581b03198216820361008457602001519060805260a052604051610d8590816100a082396080518181816102c60152610532015260a051816102530152f35b600080fd5b634e487b7160e01b600052604160045260246000fdfe6080604052600436101561001257600080fd5b6000803560e01c908162d3441114610079575080631b8550441461007457806374be21501461006f578063759c09001461006a578063e81900a6146100655763efae93df1461006057600080fd5b6104f9565b61041a565b610276565b61023b565b6101fc565b346100d457806003193601126100d45761009360c0604052565b60056080527f6f6173697300000000000000000000000000000000000000000000000000000060a05260405160208152806100d060208201610198565b0390f35b80fd5b7f4e487b7100000000000000000000000000000000000000000000000000000000600052604160045260246000fd5b6040810190811067ffffffffffffffff82111761012257604052565b6100d7565b90601f601f19910116810190811067ffffffffffffffff82111761012257604052565b6040519061015782610106565b565b67ffffffffffffffff811161012257601f01601f191660200190565b60005b8381106101885750506000910152565b8181015183820152602001610178565b906080519182815260005b8381106101c35750601f19601f8460006020809697860101520116010190565b8060209160a00151828285010152016101a3565b90601f19601f6020936101f581518092818752878088019101610175565b0116010190565b3461023657604060031936011261023657600435600052600060205260406000206024356000526020526020604060002054604051908152f35b600080fd5b346102365760006003193601126102365760206040517f00000000000000000000000000000000000000000000000000000000000000008152f35b346102365760606003193601126102365767ffffffffffffffff61032161029b610896565b6040517f550000000000000000000000000000000000000000000000000000000000000060208201527f00000000000000000000000000000000000000000000000000000000000000007fffffffffffffffffffffffffffffffffffffffffff0000000000000000000000166021820152601681529061031c603683610127565b610943565b911615908115916103f5575b8115610376575b5061034c5761034a60443560243560043561082e565b005b60046040517f6890282f000000000000000000000000000000000000000000000000000000008152fd5b7ff50000000000000000000000000000000000000000000000000000000000000091506103ec6103c67fff00000000000000000000000000000000000000000000000000000000000000926105e6565b517fff000000000000000000000000000000000000000000000000000000000000001690565b16141538610334565b805160011415915061032d565b67ffffffffffffffff81116101225760051b60200190565b346102365760408060031936011261023657602490813567ffffffffffffffff92838211610236573660238301121561023657816004013561045b81610402565b9361046881519586610127565b818552602095838787019360051b8601019436861161023657848101935b8685106104995761034a886004356106fe565b843583811161023657820190366043830112156102365786820135906104be82610159565b6104ca87519182610127565b82815260449336858583010111610236578c848196958296600094018386013783010152815201940193610486565b346102365760006003193601126102365760206040517fffffffffffffffffffffffffffffffffffffffffff00000000000000000000007f0000000000000000000000000000000000000000000000000000000000000000168152f35b7f4e487b7100000000000000000000000000000000000000000000000000000000600052601160045260246000fd5b7fffffffffffffffffffffffffffffffffffffffffffffffffffffffffffffffff81146105b25760010190565b610556565b7f4e487b7100000000000000000000000000000000000000000000000000000000600052603260045260246000fd5b8051156105f35760200190565b6105b7565b8051600810156105f3576101200190565b80518210156105f35760209160051b010190565b907fffffffffffffffffffffffffffffffffffffffffffffffffffffffffffffffff82019182116105b257565b907fffffffffffffffffffffffffffffffffffffffffffffffffffffffffffffff4082019182116105b257565b907fffffffffffffffffffffffffffffffffffffffffffffffffffffffffffffff8082019182116105b257565b907fffffffffffffffffffffffffffffffffffffffffffffffffffffffffffffff0982019182116105b257565b907fffffffffffffffffffffffffffffffffffffffffffffffffffffffffffffff4982019182116105b257565b91909160005b83518110156108285761072061071a8286610609565b51610a33565b61073061072c82610b47565b1590565b6107fe5761073d90610a74565b61075b61074f61075561074f846105e6565b51610b6e565b926105f8565b6107658387610609565b516020815191012061079482610785876000526000602052604060002090565b90600052602052604060002090565b548082036107bf5750506107ba92916107af6107b59261061d565b8561082e565b610585565b610704565b6040517fc442fd2b0000000000000000000000000000000000000000000000000000000081526004810184905260248101929092526044820152606490fd5b60046040517fe4508b9f000000000000000000000000000000000000000000000000000000008152fd5b50509050565b6000818152806020526040812083825260205283604082205403610853575b50505050565b7f7c57815e36323391c63e53a2fe2969599eb6dbcf52484a3bd8909aef4a6704d7918152806020526040812083825260205283604082205580a33880808061084d565b604051906108a382610106565b601782527f726f666c2e4973417574686f72697a65644f726967696e0000000000000000006020830152565b919060408382031261023657825167ffffffffffffffff90818116810361023657936020810151918211610236570181601f8201121561023657805161091481610159565b926109226040519485610127565b81845260208284010111610236576109409160208085019101610175565b90565b600091908291610989604051918261097d61096a60208301966040885260608401906101d7565b601f1993848483030160408501526101d7565b03908101835282610127565b51907301000000000000000000000000000000000001035afa3d15610a12573d906109b382610159565b916109c16040519384610127565b82523d6000602084013e5b156109e857806020806109e4935183010191016108cf565b9091565b60046040517f902e94f8000000000000000000000000000000000000000000000000000000008152fd5b6060906109cc565b60405190610a2782610106565b60006020838281520152565b610a3b610a1a565b50602081519160405192610a4e84610106565b835201602082015290565b90600182018092116105b257565b919082018092116105b257565b610a7d81610b47565b1561023657610a8b81610bcd565b610a9481610402565b91610aa26040519384610127565b818352601f19610ab183610402565b0160005b818110610b30575050610ad6602080920151610ad081610cef565b90610a67565b6000905b838210610ae8575050505090565b610b2481610af8610b2a93610c2f565b90610b0161014a565b8281528187820152610b13868a610609565b52610b1e8589610609565b50610a67565b91610585565b90610ada565b602090610b3b610a1a565b82828801015201610ab5565b805115610b6857602060c09101515160001a10610b6357600190565b600090565b50600090565b80518015159081610bc1575b5015610236576020810190610b8f8251610cef565b9151908282018092116105b257519182039182116105b257519060208110610bb5575090565b6020036101000a900490565b60219150111538610b7a565b805115610b685760009060208101908151610be781610cef565b81018091116105b2579151905181018091116105b25791905b828110610c0d5750905090565b610c1681610c2f565b81018091116105b257610c299091610585565b90610c00565b805160001a906080821015610c45575050600190565b60b8821015610c605750610c5b61094091610677565b610a59565b60c0821015610ca15760010151602082900360b7016101000a9004017fffffffffffffffffffffffffffffffffffffffffffffffffffffffffffffff4a0190565b60f8821015610cb75750610c5b6109409161064a565b60010151602082900360f7016101000a9004017fffffffffffffffffffffffffffffffffffffffffffffffffffffffffffffff0a0190565b5160001a6080811015610d025750600090565b60b881108015610d39575b15610d185750600190565b60c0811015610d2d57610c5b610940916106d1565b610c5b610940916106a4565b5060c08110158015610d0d575060f88110610d0d56fea2646970667358221220003ab2d77e5317eb394522fa5ebe8f7bd88d66d29a059d0f4bf2550a02824fae64736f6c63430008140033",
  "linkReferences": {},
  "deployedLinkReferences": {}
}